{
  "_format": "hh-sol-artifact-1",
  "contractName": "MultisigWallet",
  "sourceName": "contracts/MultisigWallet.sol",
  "abi": [
    {
      "inputs": [
        {
          "internalType": "address[]",
          "name": "_owners",
          "type": "address[]"
        },
        {
          "internalType": "uint256",
          "name": "_required",
          "type": "uint256"
        }
      ],
      "stateMutability": "nonpayable",
      "type": "constructor"
    },
    {
      "anonymous": false,
      "inputs": [
        {
          "indexed": true,
          "internalType": "address",
          "name": "owner",
          "type": "address"
        },
        {
          "indexed": true,
          "internalType": "uint256",
          "name": "txIndex",
          "type": "uint256"
        }
      ],
      "name": "ConfirmTransaction",
      "type": "event"
    },
    {
      "anonymous": false,
      "inputs": [
        {
          "indexed": true,
          "internalType": "address",
          "name": "owner",
          "type": "address"
        },
        {
          "indexed": true,
          "internalType": "uint256",
          "name": "txIndex",
          "type": "uint256"
        }
      ],
      "name": "ExecuteTransaction",
      "type": "event"
    },
    {
      "anonymous": false,
      "inputs": [
        {
          "indexed": true,
          "internalType": "address",
          "name": "owner",
          "type": "address"
        },
        {
          "indexed": true,
          "internalType": "uint256",
          "name": "txIndex",
          "type": "uint256"
        }
      ],
      "name": "RevokeConfirmation",
      "type": "event"
    },
    {
      "anonymous": false,
      "inputs": [
        {
          "indexed": true,
          "internalType": "address",
          "name": "owner",
          "type": "address"
        },
        {
          "indexed": true,
          "internalType": "uint256",
          "name": "txIndex",
          "type": "uint256"
        },
        {
          "indexed": true,
          "internalType": "address",
          "name": "to",
          "type": "address"
        },
        {
          "indexed": false,
          "internalType": "uint256",
          "name": "value",
          "type": "uint256"
        },
        {
          "indexed": false,
          "internalType": "bytes",
          "name": "data",
          "type": "bytes"
        }
      ],
      "name": "SubmitTransaction",
      "type": "event"
    },
    {
      "inputs": [
        {
          "internalType": "uint256",
          "name": "_txIndex",
          "type": "uint256"
        }
      ],
      "name": "confirmTransaction",
      "outputs": [],
      "stateMutability": "nonpayable",
      "type": "function"
    },
    {
      "inputs": [
        {
          "internalType": "uint256",
          "name": "_txIndex",
          "type": "uint256"
        }
      ],
      "name": "executeTransaction",
      "outputs": [],
      "stateMutability": "nonpayable",
      "type": "function"
    },
    {
      "inputs": [],
      "name": "getOwners",
      "outputs": [
        {
          "internalType": "address[]",
          "name": "",
          "type": "address[]"
        }
      ],
      "stateMutability": "view",
      "type": "function"
    },
    {
      "inputs": [
        {
          "internalType": "uint256",
          "name": "_txIndex",
          "type": "uint256"
        }
      ],
      "name": "getTransaction",
      "outputs": [
        {
          "internalType": "address",
          "name": "to",
          "type": "address"
        },
        {
          "internalType": "uint256",
          "name": "value",
          "type": "uint256"
        },
        {
          "internalType": "bytes",
          "name": "data",
          "type": "bytes"
        },
        {
          "internalType": "bool",
          "name": "executed",
          "type": "bool"
        },
        {
          "internalType": "uint256",
          "name": "numConfirmations",
          "type": "uint256"
        }
      ],
      "stateMutability": "view",
      "type": "function"
    },
    {
      "inputs": [],
      "name": "getTransactionCount",
      "outputs": [
        {
          "internalType": "uint256",
          "name": "",
          "type": "uint256"
        }
      ],
      "stateMutability": "view",
      "type": "function"
    },
    {
      "inputs": [
        {
          "internalType": "uint256",
          "name": "",
          "type": "uint256"
        },
        {
          "internalType": "address",
          "name": "",
          "type": "address"
        }
      ],
      "name": "isConfirmed",
      "outputs": [
        {
          "internalType": "bool",
          "name": "",
          "type": "bool"
        }
      ],
      "stateMutability": "view",
      "type": "function"
    },
    {
      "inputs": [
        {
          "internalType": "address",
          "name": "",
          "type": "address"
        }
      ],
      "name": "isOwner",
      "outputs": [
        {
          "internalType": "bool",
          "name": "",
          "type": "bool"
        }
      ],
      "stateMutability": "view",
      "type": "function"
    },
    {
      "inputs": [
        {
          "internalType": "uint256",
          "name": "",
          "type": "uint256"
        }
      ],
      "name": "owners",
      "outputs": [
        {
          "internalType": "address",
          "name": "",
          "type": "address"
        }
      ],
      "stateMutability": "view",
      "type": "function"
    },
    {
      "inputs": [],
      "name": "required",
      "outputs": [
        {
          "internalType": "uint256",
          "name": "",
          "type": "uint256"
        }
      ],
      "stateMutability": "view",
      "type": "function"
    },
    {
      "inputs": [
        {
          "internalType": "uint256",
          "name": "_txIndex",
          "type": "uint256"
        }
      ],
      "name": "revokeConfirmation",
      "outputs": [],
      "stateMutability": "nonpayable",
      "type": "function"
    },
    {
      "inputs": [
        {
          "internalType": "address",
          "name": "_to",
          "type": "address"
        },
        {
          "internalType": "uint256",
          "name": "_value",
          "type": "uint256"
        },
        {
          "internalType": "bytes",
          "name": "_data",
          "type": "bytes"
        }
      ],
      "name": "submitTransaction",
      "outputs": [],
      "stateMutability": "nonpayable",
      "type": "function"
    },
    {
      "inputs": [
        {
          "internalType": "uint256",
          "name": "",
          "type": "uint256"
        }
      ],
      "name": "transactions",
      "outputs": [
        {
          "internalType": "address",
          "name": "to",
          "type": "address"
        },
        {
          "internalType": "uint256",
          "name": "value",
          "type": "uint256"
        },
        {
          "internalType": "bytes",
          "name": "data",
          "type": "bytes"
        },
        {
          "internalType": "bool",
          "name": "executed",
          "type": "bool"
        },
        {
          "internalType": "uint256",
          "name": "numConfirmations",
          "type": "uint256"
        }
      ],
      "stateMutability": "view",
      "type": "function"
    },
    {
      "stateMutability": "payable",
      "type": "receive"
    }
  ],
  "bytecode": "0x60806040523480156200001157600080fd5b506040516200254d3803806200254d833981810160405281019062000037919062000505565b60008251116200007e576040517f08c379a00000000000000000000000000000000000000000000000000000000081526004016200007590620005cc565b60405180910390fd5b60008111801562000090575081518111155b620000d2576040517f08c379a0000000000000000000000000000000000000000000000000000000008152600401620000c9906200063e565b60405180910390fd5b60005b8251811015620002cc576000838281518110620000f757620000f662000660565b5b60200260200101519050600073ffffffffffffffffffffffffffffffffffffffff168173ffffffffffffffffffffffffffffffffffffffff160362000173576040517f08c379a00000000000000000000000000000000000000000000000000000000081526004016200016a90620006df565b60405180910390fd5b600160008273ffffffffffffffffffffffffffffffffffffffff1673ffffffffffffffffffffffffffffffffffffffff16815260200190815260200160002060009054906101000a900460ff161562000203576040517f08c379a0000000000000000000000000000000000000000000000000000000008152600401620001fa9062000751565b60405180910390fd5b60018060008373ffffffffffffffffffffffffffffffffffffffff1673ffffffffffffffffffffffffffffffffffffffff16815260200190815260200160002060006101000a81548160ff0219169083151502179055506000819080600181540180825580915050600190039060005260206000200160009091909190916101000a81548173ffffffffffffffffffffffffffffffffffffffff021916908373ffffffffffffffffffffffffffffffffffffffff160217905550508080600101915050620000d5565b5080600281905550505062000773565b6000604051905090565b600080fd5b600080fd5b600080fd5b6000601f19601f8301169050919050565b7f4e487b7100000000000000000000000000000000000000000000000000000000600052604160045260246000fd5b6200034082620002f5565b810181811067ffffffffffffffff8211171562000362576200036162000306565b5b80604052505050565b600062000377620002dc565b905062000385828262000335565b919050565b600067ffffffffffffffff821115620003a857620003a762000306565b5b602082029050602081019050919050565b600080fd5b600073ffffffffffffffffffffffffffffffffffffffff82169050919050565b6000620003eb82620003be565b9050919050565b620003fd81620003de565b81146200040957600080fd5b50565b6000815190506200041d81620003f2565b92915050565b60006200043a62000434846200038a565b6200036b565b9050808382526020820190506020840283018581111562000460576200045f620003b9565b5b835b818110156200048d57806200047888826200040c565b84526020840193505060208101905062000462565b5050509392505050565b600082601f830112620004af57620004ae620002f0565b5b8151620004c184826020860162000423565b91505092915050565b6000819050919050565b620004df81620004ca565b8114620004eb57600080fd5b50565b600081519050620004ff81620004d4565b92915050565b600080604083850312156200051f576200051e620002e6565b5b600083015167ffffffffffffffff81111562000540576200053f620002eb565b5b6200054e8582860162000497565b92505060206200056185828601620004ee565b9150509250929050565b600082825260208201905092915050565b7f6f776e6572732072657175697265640000000000000000000000000000000000600082015250565b6000620005b4600f836200056b565b9150620005c1826200057c565b602082019050919050565b60006020820190508181036000830152620005e781620005a5565b9050919050565b7f696e76616c696420726571756972656400000000000000000000000000000000600082015250565b6000620006266010836200056b565b91506200063382620005ee565b602082019050919050565b60006020820190508181036000830152620006598162000617565b9050919050565b7f4e487b7100000000000000000000000000000000000000000000000000000000600052603260045260246000fd5b7f696e76616c6964206f776e657200000000000000000000000000000000000000600082015250565b6000620006c7600d836200056b565b9150620006d4826200068f565b602082019050919050565b60006020820190508181036000830152620006fa81620006b8565b9050919050565b7f6f776e6572206e6f7420756e6971756500000000000000000000000000000000600082015250565b6000620007396010836200056b565b9150620007468262000701565b602082019050919050565b600060208201905081810360008301526200076c816200072a565b9050919050565b611dca80620007836000396000f3fe6080604052600436106100ab5760003560e01c80639ace38c2116100645780639ace38c214610203578063a0e67e2b14610244578063c01a8c841461026f578063c642747414610298578063dc8452cd146102c1578063ee22610b146102ec576100b2565b8063025e7c27146100b757806320ea8d86146100f45780632e7700f01461011d5780632f54bf6e1461014857806333ea3dc81461018557806380f59a65146101c6576100b2565b366100b257005b600080fd5b3480156100c357600080fd5b506100de60048036038101906100d9919061117b565b610315565b6040516100eb91906111e9565b60405180910390f35b34801561010057600080fd5b5061011b6004803603810190610116919061117b565b610354565b005b34801561012957600080fd5b50610132610626565b60405161013f9190611213565b60405180910390f35b34801561015457600080fd5b5061016f600480360381019061016a919061125a565b610633565b60405161017c91906112a2565b60405180910390f35b34801561019157600080fd5b506101ac60048036038101906101a7919061117b565b610653565b6040516101bd95949392919061134d565b60405180910390f35b3480156101d257600080fd5b506101ed60048036038101906101e891906113a7565b610766565b6040516101fa91906112a2565b60405180910390f35b34801561020f57600080fd5b5061022a6004803603810190610225919061117b565b610795565b60405161023b95949392919061134d565b60405180910390f35b34801561025057600080fd5b50610259610890565b60405161026691906114a5565b60405180910390f35b34801561027b57600080fd5b506102966004803603810190610291919061117b565b61091e565b005b3480156102a457600080fd5b506102bf60048036038101906102ba919061152c565b610bf3565b005b3480156102cd57600080fd5b506102d6610e3d565b6040516102e39190611213565b60405180910390f35b3480156102f857600080fd5b50610313600480360381019061030e919061117b565b610e43565b005b6000818154811061032557600080fd5b906000526020600020016000915054906101000a900473ffffffffffffffffffffffffffffffffffffffff1681565b600160003373ffffffffffffffffffffffffffffffffffffffff1673ffffffffffffffffffffffffffffffffffffffff16815260200190815260200160002060009054906101000a900460ff166103e0576040517f08c379a00000000000000000000000000000000000000000000000000000000081526004016103d7906115fd565b60405180910390fd5b806003805490508110610428576040517f08c379a000000000000000000000000000000000000000000000000000000000815260040161041f90611669565b60405180910390fd5b816003818154811061043d5761043c611689565b5b906000526020600020906005020160030160009054906101000a900460ff161561049c576040517f08c379a000000000000000000000000000000000000000000000000000000000815260040161049390611704565b60405180910390fd5b6004600084815260200190815260200160002060003373ffffffffffffffffffffffffffffffffffffffff1673ffffffffffffffffffffffffffffffffffffffff16815260200190815260200160002060009054906101000a900460ff16610539576040517f08c379a000000000000000000000000000000000000000000000000000000000815260040161053090611770565b60405180910390fd5b60006004600085815260200190815260200160002060003373ffffffffffffffffffffffffffffffffffffffff1673ffffffffffffffffffffffffffffffffffffffff16815260200190815260200160002060006101000a81548160ff021916908315150217905550600383815481106105b6576105b5611689565b5b906000526020600020906005020160040160008154809291906105d8906117bf565b9190505550823373ffffffffffffffffffffffffffffffffffffffff167ff0dca620e2e81f7841d07bcc105e1704fb01475b278a9d4c236e1c62945edd5560405160405180910390a3505050565b6000600380549050905090565b60016020528060005260406000206000915054906101000a900460ff1681565b600080606060008060006003878154811061067157610670611689565b5b906000526020600020906005020190508060000160009054906101000a900473ffffffffffffffffffffffffffffffffffffffff168160010154826002018360030160009054906101000a900460ff1684600401548280546106d290611817565b80601f01602080910402602001604051908101604052809291908181526020018280546106fe90611817565b801561074b5780601f106107205761010080835404028352916020019161074b565b820191906000526020600020905b81548152906001019060200180831161072e57829003601f168201915b50505050509250955095509550955095505091939590929450565b60046020528160005260406000206020528060005260406000206000915091509054906101000a900460ff1681565b600381815481106107a557600080fd5b90600052602060002090600502016000915090508060000160009054906101000a900473ffffffffffffffffffffffffffffffffffffffff16908060010154908060020180546107f490611817565b80601f016020809104026020016040519081016040528092919081815260200182805461082090611817565b801561086d5780601f106108425761010080835404028352916020019161086d565b820191906000526020600020905b81548152906001019060200180831161085057829003601f168201915b5050505050908060030160009054906101000a900460ff16908060040154905085565b6060600080548060200260200160405190810160405280929190818152602001828054801561091457602002820191906000526020600020905b8160009054906101000a900473ffffffffffffffffffffffffffffffffffffffff1673ffffffffffffffffffffffffffffffffffffffff16815260200190600101908083116108ca575b5050505050905090565b600160003373ffffffffffffffffffffffffffffffffffffffff1673ffffffffffffffffffffffffffffffffffffffff16815260200190815260200160002060009054906101000a900460ff166109aa576040517f08c379a00000000000000000000000000000000000000000000000000000000081526004016109a1906115fd565b60405180910390fd5b8060038054905081106109f2576040517f08c379a00000000000000000000000000000000000000000000000000000000081526004016109e990611669565b60405180910390fd5b8160038181548110610a0757610a06611689565b5b906000526020600020906005020160030160009054906101000a900460ff1615610a66576040517f08c379a0000000000000000000000000000000000000000000000000000000008152600401610a5d90611704565b60405180910390fd5b826004600082815260200190815260200160002060003373ffffffffffffffffffffffffffffffffffffffff1673ffffffffffffffffffffffffffffffffffffffff16815260200190815260200160002060009054906101000a900460ff1615610b05576040517f08c379a0000000000000000000000000000000000000000000000000000000008152600401610afc90611894565b60405180910390fd5b60016004600086815260200190815260200160002060003373ffffffffffffffffffffffffffffffffffffffff1673ffffffffffffffffffffffffffffffffffffffff16815260200190815260200160002060006101000a81548160ff02191690831515021790555060038481548110610b8257610b81611689565b5b90600052602060002090600502016004016000815480929190610ba4906118b4565b9190505550833373ffffffffffffffffffffffffffffffffffffffff167f5cbe105e36805f7820e291f799d5794ff948af2a5f664e580382defb6339004160405160405180910390a350505050565b600160003373ffffffffffffffffffffffffffffffffffffffff1673ffffffffffffffffffffffffffffffffffffffff16815260200190815260200160002060009054906101000a900460ff16610c7f576040517f08c379a0000000000000000000000000000000000000000000000000000000008152600401610c76906115fd565b60405180910390fd5b6000600380549050905060036040518060a001604052808773ffffffffffffffffffffffffffffffffffffffff16815260200186815260200185858080601f016020809104026020016040519081016040528093929190818152602001838380828437600081840152601f19601f8201169050808301925050505050505081526020016000151581526020016000815250908060018154018082558091505060019003906000526020600020906005020160009091909190915060008201518160000160006101000a81548173ffffffffffffffffffffffffffffffffffffffff021916908373ffffffffffffffffffffffffffffffffffffffff160217905550602082015181600101556040820151816002019081610d9f9190611ad7565b5060608201518160030160006101000a81548160ff0219169083151502179055506080820151816004015550508473ffffffffffffffffffffffffffffffffffffffff16813373ffffffffffffffffffffffffffffffffffffffff167fd5a05bf70715ad82a09a756320284a1b54c9ff74cd0f8cce6219e79b563fe59d878787604051610e2e93929190611be5565b60405180910390a45050505050565b60025481565b600160003373ffffffffffffffffffffffffffffffffffffffff1673ffffffffffffffffffffffffffffffffffffffff16815260200190815260200160002060009054906101000a900460ff16610ecf576040517f08c379a0000000000000000000000000000000000000000000000000000000008152600401610ec6906115fd565b60405180910390fd5b806003805490508110610f17576040517f08c379a0000000000000000000000000000000000000000000000000000000008152600401610f0e90611669565b60405180910390fd5b8160038181548110610f2c57610f2b611689565b5b906000526020600020906005020160030160009054906101000a900460ff1615610f8b576040517f08c379a0000000000000000000000000000000000000000000000000000000008152600401610f8290611704565b60405180910390fd5b600060038481548110610fa157610fa0611689565b5b9060005260206000209060050201905060025481600401541015610ffa576040517f08c379a0000000000000000000000000000000000000000000000000000000008152600401610ff190611c63565b60405180910390fd5b60018160030160006101000a81548160ff02191690831515021790555060008160000160009054906101000a900473ffffffffffffffffffffffffffffffffffffffff1673ffffffffffffffffffffffffffffffffffffffff1682600101548360020160405161106a9190611d11565b60006040518083038185875af1925050503d80600081146110a7576040519150601f19603f3d011682016040523d82523d6000602084013e6110ac565b606091505b50509050806110f0576040517f08c379a00000000000000000000000000000000000000000000000000000000081526004016110e790611d74565b60405180910390fd5b843373ffffffffffffffffffffffffffffffffffffffff167f5445f318f4f5fcfb66592e68e0cc5822aa15664039bd5f0ffde24c5a8142b1ac60405160405180910390a35050505050565b600080fd5b600080fd5b6000819050919050565b61115881611145565b811461116357600080fd5b50565b6000813590506111758161114f565b92915050565b6000602082840312156111915761119061113b565b5b600061119f84828501611166565b91505092915050565b600073ffffffffffffffffffffffffffffffffffffffff82169050919050565b60006111d3826111a8565b9050919050565b6111e3816111c8565b82525050565b60006020820190506111fe60008301846111da565b92915050565b61120d81611145565b82525050565b60006020820190506112286000830184611204565b92915050565b611237816111c8565b811461124257600080fd5b50565b6000813590506112548161122e565b92915050565b6000602082840312156112705761126f61113b565b5b600061127e84828501611245565b91505092915050565b60008115159050919050565b61129c81611287565b82525050565b60006020820190506112b76000830184611293565b92915050565b600081519050919050565b600082825260208201905092915050565b60005b838110156112f75780820151818401526020810190506112dc565b60008484015250505050565b6000601f19601f8301169050919050565b600061131f826112bd565b61132981856112c8565b93506113398185602086016112d9565b61134281611303565b840191505092915050565b600060a08201905061136260008301886111da565b61136f6020830187611204565b81810360408301526113818186611314565b90506113906060830185611293565b61139d6080830184611204565b9695505050505050565b600080604083850312156113be576113bd61113b565b5b60006113cc85828601611166565b92505060206113dd85828601611245565b9150509250929050565b600081519050919050565b600082825260208201905092915050565b6000819050602082019050919050565b61141c816111c8565b82525050565b600061142e8383611413565b60208301905092915050565b6000602082019050919050565b6000611452826113e7565b61145c81856113f2565b935061146783611403565b8060005b8381101561149857815161147f8882611422565b975061148a8361143a565b92505060018101905061146b565b5085935050505092915050565b600060208201905081810360008301526114bf8184611447565b905092915050565b600080fd5b600080fd5b600080fd5b60008083601f8401126114ec576114eb6114c7565b5b8235905067ffffffffffffffff811115611509576115086114cc565b5b602083019150836001820283011115611525576115246114d1565b5b9250929050565b600080600080606085870312156115465761154561113b565b5b600061155487828801611245565b945050602061156587828801611166565b935050604085013567ffffffffffffffff81111561158657611585611140565b5b611592878288016114d6565b925092505092959194509250565b600082825260208201905092915050565b7f6e6f74206f776e65720000000000000000000000000000000000000000000000600082015250565b60006115e76009836115a0565b91506115f2826115b1565b602082019050919050565b60006020820190508181036000830152611616816115da565b9050919050565b7f747820646f6573206e6f74206578697374000000000000000000000000000000600082015250565b60006116536011836115a0565b915061165e8261161d565b602082019050919050565b6000602082019050818103600083015261168281611646565b9050919050565b7f4e487b7100000000000000000000000000000000000000000000000000000000600052603260045260246000fd5b7f7478206578656375746564000000000000000000000000000000000000000000600082015250565b60006116ee600b836115a0565b91506116f9826116b8565b602082019050919050565b6000602082019050818103600083015261171d816116e1565b9050919050565b7f6e6f7420636f6e6669726d656400000000000000000000000000000000000000600082015250565b600061175a600d836115a0565b915061176582611724565b602082019050919050565b600060208201905081810360008301526117898161174d565b9050919050565b7f4e487b7100000000000000000000000000000000000000000000000000000000600052601160045260246000fd5b60006117ca82611145565b9150600082036117dd576117dc611790565b5b600182039050919050565b7f4e487b7100000000000000000000000000000000000000000000000000000000600052602260045260246000fd5b6000600282049050600182168061182f57607f821691505b602082108103611842576118416117e8565b5b50919050565b7f747820636f6e6669726d65640000000000000000000000000000000000000000600082015250565b600061187e600c836115a0565b915061188982611848565b602082019050919050565b600060208201905081810360008301526118ad81611871565b9050919050565b60006118bf82611145565b91507fffffffffffffffffffffffffffffffffffffffffffffffffffffffffffffffff82036118f1576118f0611790565b5b600182019050919050565b7f4e487b7100000000000000000000000000000000000000000000000000000000600052604160045260246000fd5b60008190508160005260206000209050919050565b60006020601f8301049050919050565b600082821b905092915050565b60006008830261198d7fffffffffffffffffffffffffffffffffffffffffffffffffffffffffffffffff82611950565b6119978683611950565b95508019841693508086168417925050509392505050565b6000819050919050565b60006119d46119cf6119ca84611145565b6119af565b611145565b9050919050565b6000819050919050565b6119ee836119b9565b611a026119fa826119db565b84845461195d565b825550505050565b600090565b611a17611a0a565b611a228184846119e5565b505050565b5b81811015611a4657611a3b600082611a0f565b600181019050611a28565b5050565b601f821115611a8b57611a5c8161192b565b611a6584611940565b81016020851015611a74578190505b611a88611a8085611940565b830182611a27565b50505b505050565b600082821c905092915050565b6000611aae60001984600802611a90565b1980831691505092915050565b6000611ac78383611a9d565b9150826002028217905092915050565b611ae0826112bd565b67ffffffffffffffff811115611af957611af86118fc565b5b611b038254611817565b611b0e828285611a4a565b600060209050601f831160018114611b415760008415611b2f578287015190505b611b398582611abb565b865550611ba1565b601f198416611b4f8661192b565b60005b82811015611b7757848901518255600182019150602085019450602081019050611b52565b86831015611b945784890151611b90601f891682611a9d565b8355505b6001600288020188555050505b505050505050565b82818337600083830152505050565b6000611bc483856112c8565b9350611bd1838584611ba9565b611bda83611303565b840190509392505050565b6000604082019050611bfa6000830186611204565b8181036020830152611c0d818486611bb8565b9050949350505050565b7f6e6f7420656e6f75676820636f6e6669726d6174696f6e730000000000000000600082015250565b6000611c4d6018836115a0565b9150611c5882611c17565b602082019050919050565b60006020820190508181036000830152611c7c81611c40565b9050919050565b600081905092915050565b60008154611c9b81611817565b611ca58186611c83565b94506001821660008114611cc05760018114611cd557611d08565b60ff1983168652811515820286019350611d08565b611cde8561192b565b60005b83811015611d0057815481890152600182019150602081019050611ce1565b838801955050505b50505092915050565b6000611d1d8284611c8e565b915081905092915050565b7f7478206661696c65640000000000000000000000000000000000000000000000600082015250565b6000611d5e6009836115a0565b9150611d6982611d28565b602082019050919050565b60006020820190508181036000830152611d8d81611d51565b905091905056fea26469706673582212200e61b90b7766c3c02ac7618e84ebeb2bc27e2a9e610eece837acb7ca1e6a1aec64736f6c63430008180033",
  "linkReferences": {},
  "deployedLinkReferences": {}
}